:4000000030303030303030303030303030303030303030303030303030303030303030303030303030303030303030303030303030303030303030303030303030303030c0
:400040003030303030303030303030303030303030303030303030303030303030303030303030303030303030303030303030303030303030303030303030303030303080
:400080003030303030303030303030303030303030303030303030303030303030303030303030303030303030303030303030303030303030303030303030303030303040
:4000c0003030303030303030303030303030303030303030303030303030303030303030303030303030303030303030303030303030303030303030303030303030303000
:400c000050067f30803b303080c33030820c3030823530303030303030303030303030303030303030303030303030303030303030303030303030303030303050007f306d
:400c400053f551f42102a02a9ff22107b006620b01800d621101621201621301621401620a026231cf622a08622b0351f421fd53f451f42104a00d2654fe7c0f6e51f4212e
:400c8000fb53f451f42108a00a7c0db051f421f753f451f53910a04a3911a0573912a0603914a0643915a068391aa084391ba085391ca086391da08c391ea08d391fa09454
:400cc0003924a095800657047c00987f51542102a00c55fb3157047c00987c0db07c0d847f55fb109f5653fc55fd4157067c00988fda55fb1155fc9657057c00988fcd2e72
:400d000054017c0db08fc02654fe7c0db08fb87c0da17c0088a0097c0e6f7c0db08fa87c0e6f7c0db055fb3257057c00988f9d7c0f938f987c0fd48f937c102457067c00ff
:400d4000988f897c10418f7f7c0da17c00887c10668f747c1fc08f747c0e4d7f3e573c57f3b00455575d70fe7a5671017f3c5696a00f3ff376563cf3f3b00955f35d800431
:400d80002e54027f3c5607c018570755f5f89fcc3ff579bffa51563ff5570850f87c00947f5de1217f60e15ddf21fd60df90207f2654fd55575d55f35d55560051542101bf
:400dc000afe05de1298060e15ddf290260df7f9e6b2107b0064100bf80044301f07f515967676767676721035359515864642c59a0037a595159217f2a5a535951586767b8
:400e000067676721075358a00b515a297f9f5e7a58bffb51599f568023085d2053595d2153585d2c2101b00c4301f0555a805553f08009555a0055530080016220006221bf
:400e400000622c03187e0850809f22187e2e54017c0db02e54045553004301f055fe0655ff317c0080b0095701507f90428ff457005552409dc62107a01e570126fdf05f9e
:400e800052fd5152b0045552f051feb00b51ffb00755fe0655ff3155f35d5553005ff5fc51f5a0073ef390079f257af5bff77f53f7217f6453f651542104b01151f7218041
:400ec000a00655530080065f5352800151f6a0895e00325361007af651fee0013a003a003a003a0051ffe0014040404040404040404040404040404040404040404040402c
:400f000040404040404040404040404040404040404040404040404040404040404040404040404040404040404040404040404040404040404040404040404040404040b1
:400f4000404040404040404040404040404040404040404040408f757f9ce12107b0055001800b55fb0457047c009850007f9ccc2107b01f4100f04101876205006206007e
:400f80006207006208006210006211006212006213007f9fc4a03d57047c00985d05210753f85d06210753f95d07210753fa5d08210753fb5d10210753fc5d11210753fd38
:400fc0005d12210753fe5d13210753ff570850f87c00947f9f83a04c7c0080affc570850f87c0084570850f87c009451f82107600551f92107600651fa2107600751fb21e1
:4010000007600851fc2107601051fd2107601151fe2107601251ff2107601355fb1b57047c00987f9f33a01970fe5d0053fc5d0153fd710168fd68fd68fd26fc0f26fd0ff1
:401040007f9f16a02126fc0f26fd0f65fd65fd65fd70fe5d0021f02afc60005d0121872afd600171017f9ef1af2955f35d58fca01f3ef353f5210f53fc51f521f06767676e
:401080006753fd9fbc501ea004788ffc798fe17f303030303030303030303030303030303030303030303030303030303030303030303030303030303030303030303030a1
:4010c00030303030303030303030303030303030303030303030303030303030303030303030303030303030303030303030303030303030303030303030303030303030f0
:4011000030303030303030303030303030303030303030303030303030303030303030303030303030303030303030303030303030303030303030303030303030303030af
:40114000303030303030303030303030303030303030303030303030303030303030303030303030303030303030303030303030303030303030303030303030303030306f
:40118000303030303030303030303030303030303030303030303030303030303030303030303030303030303030303030303030303030303030303030303030303030302f
:020000040010ea
:400000000000000000000000000000000000000000000000000000000000000000000000ffffffffffffffffffffffffffffffffffffffffffffffffffffffffffffffffe0
:020000040020da
:02000000cf5ed1
:00000001ff
