:4000000030303030303030303030303030303030303030303030303030303030303030303030303030303030303030303030303030303030303030303030303030303030c0
:400040003030303030303030303030303030303030303030303030303030303030303030303030303030303030303030303030303030303030303030303030303030303080
:400080003030303030303030303030303030303030303030303030303030303030303030303030303030303030303030303030303030303030303030303030303030303040
:4000c0003030303030303030303030303030303030303030303030303030303030303030303030303030303030303030303030303030303030303030303030303030303000
:400c000050067f30803b303080bf303082043030822630303030303030303030303030303030303030303030303030303030303030303030303030303030303050007f3088
:400c400053f551f42102a02a9ff22107b006620b01800d621101621201621301621401620a026231cf622a08622b0351f421fd53f451f42104a00d2654fe7c0f3451f42168
:400c8000fb53f451f42104a00a7c0da851f421fb53f451f53910a0463911a0533912a05c3914a0603915a064391aa080391ba081391ca082391da088391ea089391fa09088
:400cc000800657047c00987f51542102a00c55fb3157047c00987c0da87c0d7c7f55fb109f5a53fc55fd4157067c00988fda55fb1155fc9657057c00988fcd2e54017c0d32
:400d0000a88fc02654fe7c0da88fb87c0d997c0088a0097c0e3e7c0da88fa87c0e3e7c0da855fb3257057c00988f9d7c0f598f987c0f9a8f937c0fea57067c00988f897cea
:400d400010078f7f7c0d997c00887c102c8f747c1fc08f743e573c57f3b00455575d70fe7a5671017f3c5696a00f3ff376563cf3f3b00955f35d80042e54027f3c5607c0d3
:400d800018570755f5f89fcc3ff579bffa51563ff5570850f87c00947f5de1217f60e15ddf21fd60df90207f2654fd55575d55f35d55560051542101afe05de1298060e164
:400dc0005ddf290260df7f9e732107b0064100bf80044301f07f515967676767676721035359515864642c59a0037a595159217f2a5a53595158676767676721075358a0bf
:400e00000b515a297f9f5e7a58bffb51599f56801c085d2053595d2153585d2c2101b006555a808006555a0080018fab622000622100622c03187e0850809f29187e5700fd
:400e40005552409df72107a01e570126fdf05f52fd5152b0045552f051feb00b51ffb00755fe0655ff3155f35d5553005ff5fc51f5a0a63ef353f7217f6453f651f7218041
:400e8000a00655530080065f5352800151f6a0895e00325361007af651fee0013a003a003a003a0051ffe0014040404040404040404040404040404040404040404040406c
:400ec00040404040404040404040404040404040404040404040404040404040404040404040404040404040404040404040404040404040404040404040404040404040f2
:400f0000404040404040404040404040404040404040404040408f759ead7af5bf567f9d1b2107b0055001800b55fb0457047c009850007f9d062107b01f4100f041018748
:400f40006205006206006207006208006210006211006212006213007f9fc4a03d57047c00985d05210753f85d06210753f95d07210753fa5d08210753fb5d10210753fc8f
:400f80005d11210753fd5d12210753fe5d13210753ff570850f87c00947f9f83a04c7c0080affc570850f87c0084570850f87c009451f82107600551f92107600651fa2116
:400fc00007600751fb2107600851fc2107601051fd2107601151fe2107601251ff2107601355fb1b57047c00987f9f33a01970fe5d0053fc5d0153fd710168fd68fd68fdba
:4010000026fc0f26fd0f7f9f16a02126fc0f26fd0f65fd65fd65fd70fe5d0021f02afc60005d0121872afd600171017f9ef1af2955f35d58fca01f3ef353f5210f53fc5186
:40104000f521f06767676753fd9fbc501ea004788ffc798fe17f303030303030303030303030303030303030303030303030303030303030303030303030303030303030c6
:401080003030303030303030303030303030303030303030303030303030303030303030303030303030303030303030303030303030303030303030303030303030303030
:4010c00030303030303030303030303030303030303030303030303030303030303030303030303030303030303030303030303030303030303030303030303030303030f0
:4011000030303030303030303030303030303030303030303030303030303030303030303030303030303030303030303030303030303030303030303030303030303030af
:40114000303030303030303030303030303030303030303030303030303030303030303030303030303030303030303030303030303030303030303030303030303030306f
:020000040010ea
:400000000000000000000000000000000000000000000000000000000000000000000000ffffffffffffffffffffffffffffffffffffffffffffffffffffffffffffffffe0
:020000040020da
:02000000c42f0b
:00000001ff
