:4000000030303030303030303030303030303030303030303030303030303030303030303030303030303030303030303030303030303030303030303030303030303030c0
:400040003030303030303030303030303030303030303030303030303030303030303030303030303030303030303030303030303030303030303030303030303030303080
:400080003030303030303030303030303030303030303030303030303030303030303030303030303030303030303030303030303030303030303030303030303030303040
:4000c0003030303030303030303030303030303030303030303030303030303030303030303030303030303030303030303030303030303030303030303030303030303000
:400c000050017f30803b303080b3303082023030822530303030303030303030303030303030303030303030303030303030303030303030303030303030303050007f309c
:400c400053f551f42102a02a9ff22107b006620b01800d621101621201621301621401620a026231cf622a08622b0351f421fd53f451f42104a0105555007c0da67c0f2a74
:400c800051f421fb53f451f53910a0353911a03f3912a0483914a04c3915a050391aa06c391ba06d391ca06e391da074391ea075391fa07c800657047c00987f7c0d757ff7
:400cc00055fb109f7753fc57057c00988fee55fb1155fc9657057c00988fe15555017c0da68fd45555007c0d938fcc7c0d937c0088a0097c0e3e7c0da68fbc7c0e3e7c0d60
:400d0000a655fb3257057c00988fb17c0f4d8fac7c0f8e8fa77c0fde57067c00988f9d7c0ffb8f937c0d937c00887c10208f887c1fc08f883e593c59f3b00455595d70fe2a
:400d40007a583c5807b00455570071017f3c5896a0173ff376583c5808b0045557013cf3f3b01255f35d800d55560155595d55f35d5558007f3c5700a019570755f5f87cd1
:400d80000d343ff579bff951583ff5570850f87c00947f5de1217f60e15ddf21fd60df9e9b210790217f55560055570055595d55f35d5558005155afdb5de1298060e15dc8
:400dc000df290260df7fb0064100bf80064301f080017f10515b6767676767672103535b515a64642c5ba0037a5b515b217f2a5c535b515a676767676721075ca00b515c47
:400e0000297f7c0d4d79bffb515b7c0d4d207f085d20535b5d21535a5d2c2101b006555c808006555c0080017c0dd3622000622100622c0f187e0850807c0d4d187e570009
:400e40005552409df7210753f7a010570126fdf05f52fd5152b0045552f055f35d5553005ff5fc51f5a0a63ef35354217f6453f651542180a00655530080065f53528001e1
:400e800051f6a0895e00325361007af651fee0013a003a003a003a0051ffe001404040404040404040404040404040404040404040404040404040404040404040404040c5
:400ec00040404040404040404040404040404040404040404040404040404040404040404040404040404040404040404040404040404040404040404040404040404040f2
:400f0000404040404040404040408f7551f79eb67af5bf547f9d252107b0055001800b55fb0457047c009850007f9fe9a01f4100f0410187620500620600620700620800a0
:400f40006210006211006212006213007f9fc6a03d57047c00985d05210753f85d06210753f95d07210753fa5d08210753fb5d10210753fc5d11210753fd5d12210753fe61
:400f80005d13210753ff570850f87c00947f9f85a04c7c0080affc570850f87c0084570850f87c009451f82107600551f92107600651fa2107600751fb2107600851fc212a
:400fc00007601051fd2107601151fe2107601251ff2107601355fb1b57047c00987f9f35a01970fe5d0053fc5d0153fd710168fd68fd68fd26fc0f26fd0f7f9f18a02126f0
:40100000fc0f26fd0f65fd65fd65fd70fe5d0021f02afc60005d0121872afd600171017f9ef3af2955f35d58fca0203ef353f5210f53fc51f521f06767676753fd7c0ffb89
:40104000501ea004788ffc798fe07f303030303030303030303030303030303030303030303030303030303030303030303030303030303030303030303030303030303004
:401080003030303030303030303030303030303030303030303030303030303030303030303030303030303030303030303030303030303030303030303030303030303030
:4010c00030303030303030303030303030303030303030303030303030303030303030303030303030303030303030303030303030303030303030303030303030303030f0
:4011000030303030303030303030303030303030303030303030303030303030303030303030303030303030303030303030303030303030303030303030303030303030af
:40114000303030303030303030303030303030303030303030303030303030303030303030303030303030303030303030303030303030303030303030303030303030306f
:020000040010ea
:400000000000000000000000000000000000000000000000000000000000000000000000ffffffffffffffffffffffffffffffffffffffffffffffffffffffffffffffffe0
:020000040020da
:02000000ba8eb6
:00000001ff
