:4000000030303030303030303030303030303030303030303030303030303030303030303030303030303030303030303030303030303030303030303030303030303030c0
:400040003030303030303030303030303030303030303030303030303030303030303030303030303030303030303030303030303030303030303030303030303030303080
:400080003030303030303030303030303030303030303030303030303030303030303030303030303030303030303030303030303030303030303030303030303030303040
:4000c0003030303030303030303030303030303030303030303030303030303030303030303030303030303030303030303030303030303030303030303030303030303000
:400c000050037f30803b303080b3303081f13030821330303030303030303030303030303030303030303030303030303030303030303030303030303030303050007f30be
:400c400053f551f42102a02a9ff22107b006620b01800d621101621201621301621401620a026231cf622a08622b0351f421fd53f451f42104a0105554007c0d977c0f139b
:400c800051f421fb53f451f53910a0443911a04e3912a0573914a05b3915a05f391aa07b391ba07c391ca07d391da083391ea084391fa08b800657047c00987f5155a00c7d
:400cc00055fb3157047c00987c0d977c0d6b7f55fb109f6853fc57057c00988fdf55fb1155fc9657057c00988fd25554017c0d978fc55554007c0d978fbd7c0d887c00887c
:400d0000a0097c0e2b7c0d978fad7c0e2b7c0d9755fb3257057c00988fa27c0f368f9d7c0f778f987c0fc757067c00988f8e7c0fe48f847c0d887c00887c10098f797c1f3c
:400d4000c08f793e573c57f3b00455575d70fe7a5671017f3c5696a00f3ff376563cf3f3b00955f35d80045555017f3c5607c018570755f5f89fcc3ff579bffa51563ff5e4
:400d8000570850f87c00947f5de1217f60e15ddf21fd60df901e7f55550055575d55f35d5556005154afe25de1298060e15ddf290260df7f9e862107b0064100bf800443c9
:400dc00001f07f515967676767676721035359515864642c59a0037a595159217f2a5a53595158676767676721075358a00b515a297f9f607a58bffb51599f58801c085d0f
:400e00002053595d2153585d2c2101b006555a808006555a0080018fab622000622100622c03187e0850809f2b187e57005552409e0a2107a010570126fdf05f52fd51525f
:400e4000b0045552f055f35d5553005ff5fc51f5a0a63ef353f7217f6453f651f72180a00655530080065f5352800151f6a0895e00325361007af651fee0013a003a003af2
:400e8000003a0051ffe00140404040404040404040404040404040404040404040404040404040404040404040404040404040404040404040404040404040404040404087
:400ec00040404040404040404040404040404040404040404040404040404040404040404040404040404040404040404040404040404040408f759ebb7af5bf567f9d3c79
:400f00002107b0055001800b55fb0457047c009850007f9fe9a01f4100f04101876205006206006207006208006210006211006212006213007f9fc6a03d57047c00985d28
:400f400005210753f85d06210753f95d07210753fa5d08210753fb5d10210753fc5d11210753fd5d12210753fe5d13210753ff570850f87c00947f9f85a04c7c0080affce5
:400f8000570850f87c0084570850f87c009451f82107600551f92107600651fa2107600751fb2107600851fc2107601051fd2107601151fe2107601251ff2107601355fb7f
:400fc0001b57047c00987f9f35a01970fe5d0053fc5d0153fd710168fd68fd68fd26fc0f26fd0f7f9f18a02126fc0f26fd0f65fd65fd65fd70fe5d0021f02afc60005d014f
:4010000021872afd600171017f9ef3af2955f35d58fca01f3ef353f5210f53fc51f521f06767676753fd9fbc501ea004788ffc798fe17f30303030303030303030303030eb
:401040003030303030303030303030303030303030303030303030303030303030303030303030303030303030303030303030303030303030303030303030303030303070
:401080003030303030303030303030303030303030303030303030303030303030303030303030303030303030303030303030303030303030303030303030303030303030
:4010c00030303030303030303030303030303030303030303030303030303030303030303030303030303030303030303030303030303030303030303030303030303030f0
:4011000030303030303030303030303030303030303030303030303030303030303030303030303030303030303030303030303030303030303030303030303030303030af
:020000040010ea
:400000000000000000000000000000000000000000000000000000000000000000000000ffffffffffffffffffffffffffffffffffffffffffffffffffffffffffffffffe0
:020000040020da
:02000000ba77cd
:00000001ff
