:4000000030303030303030303030303030303030303030303030303030303030303030303030303030303030303030303030303030303030303030303030303030303030c0
:400040003030303030303030303030303030303030303030303030303030303030303030303030303030303030303030303030303030303030303030303030303030303080
:400080003030303030303030303030303030303030303030303030303030303030303030303030303030303030303030303030303030303030303030303030303030303040
:4000c0003030303030303030303030303030303030303030303030303030303030303030303030303030303030303030303030303030303030303030303030303030303000
:400c000050067f30803b303080c33030821a3030824e30303030303030303030303030303030303030303030303030303030303030303030303030303030303050007f3046
:400c400053f551f42102a02a9ff22107b006620b01800d621101621201621301621401620a026231cf622a08622b0351f421fd53f451f42104a00d264bfe7c0f8451f42121
:400c8000fb53f451f42108a00a7c0dc551f421f753f451f53910a04a3911a0573912a0603914a0643915a068391aa084391ba085391ca086391da08c391ea08d391fa0943f
:400cc0003925a095800657047c00987f514b2102a00c55fb3157047c00987c0dc57c0d8a7f55fb109f5653fc55fd4157067c00988fda55fb1155fc9657057c00988fcd2e5f
:400d00004b017c0dc58fc0264bfe7c0dc58fb87c0db67c0088a0097c0ea97c0dc58fa87c0ea97c0dc555fb3257057c00988f9d7c0fa98f987c0fea8f937c103a57067c00f2
:400d4000988f897c10578f7f7c0db67c00887c107c8f747c1fc08f7457047c00987c0e918f6a3e4e3c4ef3b004554e5d70fe7a4d71017f3c4d96a00f3ff3764d3cf3f3b02b
:400d80000955f35d80042e4b027f3c4d07c018570755f5f89fcc3ff579bffa514d3ff5570850f87c00947f9e932107b0064100bf80044301f07f5de1217f60e15ddf21fd67
:400dc00060df9fe37f264bfd554e5d55f35d554d009fe3514b2101a0135de1298060e1514b2104b0075ddf290260df7f515067676767676721035350514f64642c50a003ed
:400e00007a505150217f2a515350514f67676767672107534fa00b5151297f9f567a4fbffb51509f4e802e085d2053505d21534f5d2c2101b00f555180514b2104a0145fc7
:400e400049488011555100514b2104a00655490080038f99622000622100622c03187e0850809f0f187e554a005548409dce2107a01f554a0126fdf05f48fd5148b00455eb
:400e800048f051feb00b51ffb00755fe0655ff317f9fd32e4b059f2d7c0080b007507f90208ff6264bfa9f1d7f9fbb55f35d5549005ff5fc51f5a0053ef390057af5bff9ae
:400ec0007f53f7217f6453f6584a514b2104b01151f72180a00655490080065f4948800151f6a0895e00324961007af651fee0013a003a003a003a0051ffe0014040404031
:400f000040404040404040404040404040404040404040404040404040404040404040404040404040404040404040404040404040404040404040404040404040404040b1
:400f40004040404040404040404040404040404040404040404040404040404040404040404040404040404040408f759e397f9ccb2107b0055001800b55fb0457047c004c
:400f80009850007f9cb62107b01f4100f04101876205006206006207006208006210006211006212006213007f9fc4a03d57047c00985d05210753f85d06210753f95d07d9
:400fc000210753fa5d08210753fb5d10210753fc5d11210753fd5d12210753fe5d13210753ff570850f87c00947f9f83a04c7c0080affc570850f87c0084570850f87c0050
:401000009451f82107600551f92107600651fa2107600751fb2107600851fc2107601051fd2107601151fe2107601251ff2107601355fb1b57047c00987f9f33a01970fec6
:401040005d0053fc5d0153fd710168fd68fd68fd26fc0f26fd0f7f9f16a02126fc0f26fd0f65fd65fd65fd70fe5d0021f02afc60005d0121872afd600171017f9ef1af294c
:4010800055f35d58fca01f3ef353f5210f53fc51f521f06767676753fd9fbc501ea004788ffc798fe17f303030303030303030303030303030303030303030303030303085
:4010c00030303030303030303030303030303030303030303030303030303030303030303030303030303030303030303030303030303030303030303030303030303030f0
:4011000030303030303030303030303030303030303030303030303030303030303030303030303030303030303030303030303030303030303030303030303030303030af
:40114000303030303030303030303030303030303030303030303030303030303030303030303030303030303030303030303030303030303030303030303030303030306f
:40118000303030303030303030303030303030303030303030303030303030303030303030303030303030303030303030303030303030303030303030303030303030302f
:020000040010ea
:400000000000000000000000000000000000000000000000000000000000000000000000ffffffffffffffffffffffffffffffffffffffffffffffffffffffffffffffffe0
:020000040020da
:02000000d3b477
:00000001ff
