:4000000030303030303030303030303030303030303030303030303030303030303030303030303030303030303030303030303030303030303030303030303030303030c0
:400040003030303030303030303030303030303030303030303030303030303030303030303030303030303030303030303030303030303030303030303030303030303080
:400080003030303030303030303030303030303030303030303030303030303030303030303030303030303030303030303030303030303030303030303030303030303040
:4000c0003030303030303030303030303030303030303030303030303030303030303030303030303030303030303030303030303030303030303030303030303030303000
:400c000050067f30803b303080c43030821b3030824f30303030303030303030303030303030303030303030303030303030303030303030303030303030303050007f3043
:400c400053f551f42102a02d9ff22107b0094100bf620b0180104301f0621101621201621301621401620a026231cf622a08622b0326f4fd51f42104a00a264bfe7c0f88dc
:400c800026f4fb51f42108a0077c0dc626f4f751f53910a04e3911a05b3912a0643914a0683915a06c391aa088391ba089391ca08a391da090391ea091391fa0983925a0d7
:400cc000993906a09a800657047c00987f514b2102a00c55fb3157047c00987c0dc67c0d8b7f55fb109f5553fc55fd4157067c00988fda55fb1155fc9657057c00988fcd0d
:400d00002e4b017c0dc68fc0264bfe7c0dc68fb87c0db77c0088a0097c0ead7c0dc68fa87c0ead7c0dc655fb3257057c00988f9d7c0fad8f987c0fee8f937c103e57067cab
:400d400000988f897c105b8f7f7c0db77c00887c10808f747c1fc08f7457047c00987c0e928f6a3e4e3c4ef3b004554e5d70fe7a4d71017f3c4d96a00f3ff3764d3cf3f3d1
:400d8000b00955f35d80042e4b027f3c4d07c018570755f5f89fcc3ff579bffa514d3ff5570850f87c00947f9e922107b0064100bf80044301f07f5de1217f60e15ddf21b5
:400dc000fd60df9fe37f264bfd554e5d55f35d554d009fe3514b2101a0135de1298060e1514b2104b0075ddf290260df7f515067676767676721035350514f64642c50a0f3
:400e0000037a505150217f2a515350514f67676767672107534fa00b5151297f9f567a4fbffb51509f4e802e085d2053505d21534f5d2c2101b00f555180514b2104a01423
:400e40005f49488011555100514b2104a00655490080038f99622000622100622c03187e0850809f0f187e554a005548409dcd2107a01f554a0126fdf05f48fd5148b004e2
:400e80005548f051feb00b51ffb00755fe0655ff317f9fd32e4b059f2d62e3387c0080b007507f90208ff3264bfa9f1a7f9fb855f35d5549005ff5fc51f5a0053ef390050c
:400ec0007af5bff97f53f7217f6453f6584a514b2104b01151f72180a00655490080065f4948800151f6a0895e00324961007af651fee0013a003a003a003a0051ffe0010a
:400f000040404040404040404040404040404040404040404040404040404040404040404040404040404040404040404040404040404040404040404040404040404040b1
:400f4000404040404040404040404040404040404040404040404040404040404040404040404040404040404040404040408f759e367f9cc72107b0055001800b55fb042a
:400f800057047c009850007f9cb22107b01f4100f04101876205006206006207006208006210006211006212006213007f9fc4a03d57047c00985d05210753f85d062107b6
:400fc00053f95d07210753fa5d08210753fb5d10210753fc5d11210753fd5d12210753fe5d13210753ff570850f87c00947f9f83a04c7c0080affc570850f87c0084570864
:4010000050f87c009451f82107600551f92107600651fa2107600751fb2107600851fc2107601051fd2107601151fe2107601251ff2107601355fb1b57047c00987f9f3329
:40104000a01970fe5d0053fc5d0153fd710168fd68fd68fd26fc0f26fd0f7f9f16a02126fc0f26fd0f65fd65fd65fd70fe5d0021f02afc60005d0121872afd600171017f8c
:401080009ef1af2955f35d58fca01f3ef353f5210f53fc51f521f06767676753fd9fbc501ea004788ffc798fe17f30303030303030303030303030303030303030303030de
:4010c00030303030303030303030303030303030303030303030303030303030303030303030303030303030303030303030303030303030303030303030303030303030f0
:4011000030303030303030303030303030303030303030303030303030303030303030303030303030303030303030303030303030303030303030303030303030303030af
:40114000303030303030303030303030303030303030303030303030303030303030303030303030303030303030303030303030303030303030303030303030303030306f
:40118000303030303030303030303030303030303030303030303030303030303030303030303030303030303030303030303030303030303030303030303030303030302f
:020000040010ea
:400000000000000000000000000000000000000000000000000000000000000000000000ffffffffffffffffffffffffffffffffffffffffffffffffffffffffffffffffe0
:020000040020da
:02000000d3ae7d
:00000001ff
