:4000000030303030303030303030303030303030303030303030303030303030303030303030303030303030303030303030303030303030303030303030303030303030c0
:400040003030303030303030303030303030303030303030303030303030303030303030303030303030303030303030303030303030303030303030303030303030303080
:400080003030303030303030303030303030303030303030303030303030303030303030303030303030303030303030303030303030303030303030303030303030303040
:4000c0003030303030303030303030303030303030303030303030303030303030303030303030303030303030303030303030303030303030303030303030303030303000
:400c000050057f30803b303080b3303081f43030821630303030303030303030303030303030303030303030303030303030303030303030303030303030303050007f30b6
:400c400053f551f42102a02a9ff22107b006620b01800d621101621201621301621401620a026231cf622a08622b0351f421fd53f451f42104a0105554007c0d9a7c0f2487
:400c800051f421fb53f451f53910a0443911a0513912a05a3914a05e3915a062391aa07e391ba07f391ca080391da086391ea087391fa08e800657047c00987f5155a00c5f
:400cc00055fb3157047c00987c0d9a7c0d6e7f55fb109f6853fc55fd4157067c00988fdc55fb1155fc9657057c00988fcf5554017c0d9a8fc25554007c0d9a8fba7c0d8be9
:400d00007c0088a0097c0e2e7c0d9a8faa7c0e2e7c0d9a55fb3257057c00988f9f7c0f498f9a7c0f8a8f957c0fda57067c00988f8b7c0ff78f817c0d8b7c00887c101c8ff0
:400d4000767c1fc08f763e573c57f3b00455575d70fe7a5671017f3c5696a00f3ff376563cf3f3b00955f35d80045555017f3c5607c018570755f5f89fcc3ff579bffa5160
:400d8000563ff5570850f87c00947f5de1217f60e15ddf21fd60df901e7f55550055575d55f35d5556005154afe25de1298060e15ddf290260df7f9e832107b0064100bf09
:400dc00080044301f07f515967676767676721035359515864642c59a0037a595159217f2a5a53595158676767676721075358a00b515a297f9f607a58bffb51599f5880c9
:400e00001c085d2053595d2153585d2c2101b006555a808006555a0080018fab622000622100622c03187e0850809f2b187e57005552409e072107a01e570126fdf05f5273
:400e4000fd5152b0045552f051feb00b51ffb00755fe0655ff3155f35d5553005ff5fc51f5a0a63ef353f7217f6453f651f72180a00655530080065f5352800151f6a089f5
:400e80005e00325361007af651fee0013a003a003a003a0051ffe0014040404040404040404040404040404040404040404040404040404040404040404040404040404035
:400ec00040404040404040404040404040404040404040404040404040404040404040404040404040404040404040404040404040404040404040404040404040404040f2
:400f00004040404040408f759ead7af5bf567f9d2b2107b0055001800b55fb0457047c009850007f9d162107b01f4100f041018762050062060062070062080062100062b2
:400f400011006212006213007f9fc4a03d57047c00985d05210753f85d06210753f95d07210753fa5d08210753fb5d10210753fc5d11210753fd5d12210753fe5d1321079f
:400f800053ff570850f87c00947f9f83a04c7c0080affc570850f87c0084570850f87c009451f82107600551f92107600651fa2107600751fb2107600851fc2107601051fc
:400fc000fd2107601151fe2107601251ff2107601355fb1b57047c00987f9f33a01970fe5d0053fc5d0153fd710168fd68fd68fd26fc0f26fd0f7f9f16a02126fc0f26fd8e
:401000000f65fd65fd65fd70fe5d0021f02afc60005d0121872afd600171017f9ef1af2955f35d58fca01f3ef353f5210f53fc51f521f06767676753fd9fbc501ea004785b
:401040008ffc798fe17f303030303030303030303030303030303030303030303030303030303030303030303030303030303030303030303030303030303030303030309d
:401080003030303030303030303030303030303030303030303030303030303030303030303030303030303030303030303030303030303030303030303030303030303030
:4010c00030303030303030303030303030303030303030303030303030303030303030303030303030303030303030303030303030303030303030303030303030303030f0
:4011000030303030303030303030303030303030303030303030303030303030303030303030303030303030303030303030303030303030303030303030303030303030af
:40114000303030303030303030303030303030303030303030303030303030303030303030303030303030303030303030303030303030303030303030303030303030306f
:020000040010ea
:400000000000000000000000000000000000000000000000000000000000000000000000ffffffffffffffffffffffffffffffffffffffffffffffffffffffffffffffffe0
:020000040020da
:02000000bf3f00
:00000001ff
